:020000041000EA
:1000000000B5324B212058609868022188439860DF
:10001000D860186158612E4B002199600221596106
:100020000121F02299502B49196001219960352056
:1000300000F044F80222904214D00621196600F024
:1000400034F8196E01211966002018661A6600F04E
:100050002CF8196E196E196E052000F02FF8012189
:100060000842F9D1002199601B49196000215960AB
:100070001A491B48016001219960EB211966A021F2
:10008000196600F012F800219960164914480160C1
:100090000121996001BC002800D000471248134993
:1000A000086003C880F30888084703B5996A0420EC
:1000B0000142FBD001200142F8D103BD02B5186610
:1000C0001866FFF7F2FF186E186E02BD00000240BE
:1000D000000000180000070000035F00212200005C
:1000E000F4000018222000A00001001008ED00E03C
:1000F00000000000000000000000000074B24E7A12
:1001000000000420E3010010C3010010E903001007
:10011000C1010010C1010010C1010010C101001097
:10012000C1010010C1010010C10100104503001001
:10013000C1010010C1010010C9030010D503001057
:10014000CD010010CD010010CD010010CD01001037
:10015000CD010010CD010010CD010010CD01001027
:10016000CD010010CD010010CD010010CD01001017
:10017000CD010010CD010010CD010010CD01001007
:10018000CD010010CD010010CD010010CD010010F7
:10019000CD010010CD010010CD010010CD010010E7
:1001A000CD010010CD010010CD010010CD010010D7
:1001B000CD010010CD010010CD010010CD010010C7
:1001C00000BE00BE00BE00BE00BE00BE00F03FF894
:1001D000103800BE00202049086006C881F3088856
:1001E00010471E48006800282DD10CA40ECC002911
:1001F00002D000F010F8F9E719491A4A002000E08F
:1002000001C19142FCD1184988471849884700BE6E
:10021000FDE701C901C29A42FBD37047640D031088
:10022000C00000201CA60020CCB203100000042057
:1002300000000420CCB203100010042000100420A1
:100240000000000070470A4820F01AFD0047EFF355
:100250000580C0B27047000008ED00E0000000D04B
:1002600028A6002074740120CD020010C5EC0110F6
:1002700057560000F8B5C046F8BC08BC9E4670470B
:10028000F8B5C04610B5064C2378002B07D1054BB6
:10029000002B02D0044800E000BF0123237010BDF2
:1002A000782B01200000000084020010044B10B5E0
:1002B000002B03D00349044800E000BF10BDC04636
:1002C000000000007C2B012084020010164B002B44
:1002D00000D1144B9D46402292029A1A9246002168
:1002E0008B460F461348144A121A24F0D5FA0F4BC6
:1002F000002B00D098470E4B002B00D098470020D1
:10030000002104000D000D48002802D00C481EF00A
:10031000DCFC23F043FE200029001BF071F91EF0E5
:10032000D1FCC046000008000000042000000000CE
:1003300061B5011028A6002074740120CBEC0110D7
:10034000000000007046C0082CD3EFF309808169DB
:1003500002390978002929D101B50FC8B8470CBC6A
:1003600003C29E461E4B06CB91421ED0083B1A602C
:10037000002909D0EFF3098020388863F0C0444693
:100380004D4656465F46F0C0906B1030F0C8A04610
:10039000A946B246BB4680F309882038F0C802203F
:1003A000C0430047EFF30880D1E770470D4A136858
:1003B0009942FAD801B5890053589C460FC8E047C6
:1003C0000CBC10609E46704701B51AF0D9FB03BC07
:1003D0008E46C7E701B51AF091FB03BC8E46C1E714
:1003E0004C9A0020F0E50210102304E0202302E0E4
:1003F000302300E040239C46F0B404AE7546E80884
:1004000001D3EFF309860E4F0FCE0FC70FBC0FC7F6
:100410004046494652465B460FC71DCE3100A60AEC
:1004200000D304316E0900D248311FC7EFF30980B1
:100430006946EFF3148663C7604601491DF0E8FF83
:10044000C851012001480421014B1847409C00205D
:10045000910C021002B4714649084900095649003E
:100460008E4402BC7047C04602B471464908490038
:10047000095C49008E4402BC7047C04603B4714613
:10048000490840004900095A49008E4403BC70479E
:10049000002243088B4274D303098B425FD3030AC3
:1004A0008B4244D3030B8B4228D3030C8B420DD3D6
:1004B000FF22090212BA030C8B4202D31212090264
:1004C00065D0030B8B4219D300E0090AC30B8B42A2
:1004D00001D3CB03C01A5241830B8B4201D38B0350
:1004E000C01A5241430B8B4201D34B03C01A5241F5
:1004F000030B8B4201D30B03C01A5241C30A8B4238
:1005000001D3CB02C01A5241830A8B4201D38B0222
:10051000C01A5241430A8B4201D34B02C01A5241C6
:10052000030A8B4201D30B02C01A5241CDD2C30938
:100530008B4201D3CB01C01A524183098B4201D3B4
:100540008B01C01A524143098B4201D34B01C01A9F
:10055000524103098B4201D30B01C01A5241C30817
:100560008B4201D3CB00C01A524183088B4201D386
:100570008B00C01A524143088B4201D34B00C01A72
:100580005241411A00D20146524110467047FFE7DE
:1005900001B5002000F0F0F802BDC0460029F7D0F8
:1005A00076E7704703460B437FD4002243088B4213
:1005B00074D303098B425FD3030A8B4244D3030BEA
:1005C0008B4228D3030C8B420DD3FF22090212BAAF
:1005D000030C8B4202D31212090265D0030B8B422B
:1005E00019D300E0090AC30B8B4201D3CB03C01A15
:1005F0005241830B8B4201D38B03C01A5241430BF0
:100600008B4201D34B03C01A5241030B8B4201D3DF
:100610000B03C01A5241C30A8B4201D3CB02C01A4A
:100620005241830A8B4201D38B02C01A5241430AC2
:100630008B4201D34B02C01A5241030A8B4201D3B1
:100640000B02C01A5241CDD2C3098B4201D3CB0158
:10065000C01A524183098B4201D38B01C01A524107
:1006600043098B4201D34B01C01A524103098B420B
:1006700001D30B01C01A5241C3088B4201D3CB00F6
:10068000C01A524183088B4201D38B00C01A5241D9
:1006900043088B4201D34B00C01A5241411A00D289
:1006A00001465241104670475DE0CA0F00D04942F2
:1006B000031000D34042534000229C4603098B4262
:1006C0002DD3030A8B4212D3FC22890112BA030AEA
:1006D0008B420CD3890192118B4208D3890192116C
:1006E0008B4204D389013AD0921100E08909C309F1
:1006F0008B4201D3CB01C01A524183098B4201D3F3
:100700008B01C01A524143098B4201D34B01C01ADD
:10071000524103098B4201D30B01C01A5241C30855
:100720008B4201D3CB00C01A524183088B4201D3C4
:100730008B00C01A5241D9D243088B4201D34B00DF
:10074000C01A5241411A00D20146634652415B1021
:10075000104601D34042002B00D549427047634602
:100760005B1000D3404201B5002000F005F802BD47
:100770000029F8D016E770477047C046D0400B1CE0
:10078000D1409C46203AD34018435242634693409E
:10079000184370479140031C90409C46203A934078
:1007A000194352426346D340194370478446101C94
:1007B00062468C46191C634600E0C0461FB502F035
:1007C00037F8002801D40021C8421FBD10B501F040
:1007D0008FFF4042013010BD10B502F029F800280B
:1007E00001DB002010BD012010BDC04610B502F095
:1007F0001FF8002801DD002010BD012010BDC046FB
:1008000010B501F0B1FF002801DC002010BD01206F
:1008100010BDC04610B501F0A7FF002801DA002086
:1008200010BD012010BDC0468446081C6146FFE78C
:100830001FB500F039FD002801D40021C8421FBDBA
:1008400010B500F0BBFC4042013010BD10B500F007
:100850002BFD002801DB002010BD012010BDC0468B
:1008600010B500F021FD002801DD002010BD0120A1
:1008700010BDC04610B500F0C9FC002801DC002006
:1008800010BD012010BDC04610B500F0BFFC00280F
:1008900001DA002010BD012010BDC0461C2101233B
:1008A0001B04984201D3000C10391B0A984201D353
:1008B000000A08391B09984201D30009043902A231
:1008C000105C40187047C046040302020101010198
:1008D000000000000000000010B5002903D1FFF760
:1008E000DDFF203002E0081CFFF7D8FF10BDC04636
:1008F000002B15D1002A13D1002906DB01DC0028CA
:1009000006D00020C043410802E0802109060020F3
:1009100007B4024801A14018029003BD5DFEFFFF2D
:1009200003B4684601B5029800F080F9019B9E4629
:1009300002B00CBC7047C046002B11D1002A0FD169
:10094000002900D1002802D00021C943081C07B4A7
:10095000024802A14018029003BDC0461DFEFFFFE1
:1009600003B4684601B5029800F09EF8019B9E46CC
:1009700002B00CBC7047C046F0B5CE4647461504E1
:100980002D0C2E0080B50704140C3F0C9946030C67
:100990007E435D43674363437F19340CE4199C46EF
:1009A000A54203D980235B029846C4444B46434387
:1009B0005143250C36046544360C2404A4195B19F4
:1009C000591820000CBC90469946F0BD70B5002225
:1009D0000C4B04000D00FFF71DFF002804D1200080
:1009E000290002F063FD70BD064B002220002900A3
:1009F00002F0F8F902F05AFD80231B069C46604481
:100A0000F1E7C0460000E04170B505000C0000228F
:100A1000002328002100FFF7DFFE002804D1280072
:100A2000210000F00DF870BD80231B06E11828009E
:100A300000F006F802000B00002150429941F2E755
:100A400070B500220B4B0D00040001F059FFFFF7B9
:100A5000BDFF060002F09AFD0022074B01F050FF97
:100A600002000B002000290002F0BCF9FFF7AEFFE6
:100A7000310070BD0000F03D0000F04170B506008F
:100A8000080002F049FD0022064B01F039FF0D007D
:100A90000400300002F07AFD2B00220001F00AF879
:100AA00070BDC0460000F041F0B54F464646D64600
:100AB000C0B5040082B00D00914698468B422FD8F5
:100AC0002CD041464846FFF707FF290006002000CA
:100AD000FFF702FF331A9C46203B9A4600D576E08A
:100AE0004B46524693401F004B46624693401E00C1
:100AF000AF4228D825D05346A41BBD41002B00DAB5
:100B00007BE0002200230092019301235246934090
:100B10000193012362469340009318E08242D0D9AA
:100B200000220023009201930A9B002B01D01C603D
:100B30005D600098019902B01CBC90469946A2469F
:100B4000F0BDA342D7D9002200230092019363464F
:100B5000002BE9D0FB079846414672080A437B0800
:100B600066460EE0AB4201D1A2420CD8A41A9D41C8
:100B7000012024196D410021013E24184D41002E11
:100B800006D0AB42EED9013E24196D41002EF8D1BA
:100B900000980199534600196941002B23DB2B0073
:100BA0005246D3402A006446E2401C0053461500DA
:100BB000002B2DDB26005746BE403300260067463B
:100BC000BE403200801A994100900191ACE7624624
:100BD00020239B1A4A46DA406146130042468A4067
:100BE00017001F4380E7624620239B1A2A006646AF
:100BF0009A402300F3401343D4E7624620230021A8
:100C00009B1A0022009101920122DA40019280E7B2
:100C10002023624626009B1ADE402F00B04666461F
:100C2000B74046463B003343C8E7C046F0B583B003
:100C300016001F000090019102F0B0FD04000D00AD
:100C400002000B0030003900FFF796FE009A019B6E
:100C5000121A8B41089920000A604B60290003B0EA
:100C6000F0BDC046F8B54746CE4643025B0A440095
:100C7000C20F9C464800DD004B02240E5B0A000EAA
:100C800080B5984626009146C90FDB00271A8A4294
:100C900029D0002F15DD00284AD1002B00D095E087
:100CA000ED08FF2C00D188E06B025B0AE6B25B0224
:100CB000F605580A3043D20710430CBC90469946BB
:100CC000F8BD002F00D087E0601CC0B2012800DC16
:100CD000B6E0EE1A720100D5C5E0002E3DD100222B
:100CE00000260023E3E7002F00DC96E000285DD01B
:100CF000FF2C60D08022D20413431B2F00DDECE0D8
:100D00002022D21B18009340F8405A1E93410343FF
:100D1000ED186B017BD50134FF2C00D1B7E0012227
:100D200007262A406B089A4D1D4015432E4029E0A6
:100D3000FF2CB5D08022D20413431B2F00DDB2E07C
:100D40002022D21B19009340F9405A1E93410B43B5
:100D5000ED1A6B015BD5AD01AE093000FFF79EFDCA
:100D600005388640844265DC041B330020200134B2
:100D7000E340041BA640751EAE41334307261D0009
:100D800000241E4001224B461A40002E04D00F239F
:100D90002B40042B00D004356B0100D480E70134D4
:100DA000E6B2FF2C2FD1FF26002380E7002B52D183
:100DB000FF2C00D074E70A00ED08002DF3D080234B
:100DC000DB032B435B025B0AFF2670E7013F002F2A
:100DD000BED0FF2CB1D163E7002C47D0FF2869D0EB
:100DE0008024E4047A4225431B2A00DDC5E02C0060
:100DF0002026D440B21A95406A1E954125435D1BBA
:100E000004008946A5E7AB015B0A50E700240122F4
:100E10004B461A406B07BAD142E7002F3BD1013451
:100E2000E0B201284ADDFF2CBDD00726ED186D0881
:100E30002E40A7E70723574D241A35401E40A1E74F
:100E4000002C1BD1002D6ED1002B00D19AE00A009E
:100E50001D003C0024E7013F002F00D158E7FF2C84
:100E600000D04AE7A7E75E1B894676E7002D1CD134
:100E70000A00FF281FD004001D0011E7002D5DD1DE
:100E8000002B17D180230022DB03FF260FE70A0087
:100E9000FF2600230BE7002C21D1002D66D1FF286F
:100EA000E9D11D0087E7012352E77A1CA7D0FA4356
:100EB000FF2899D10A001D00FF24F1E6002E21D160
:100EC000002D4FD0002B4CD0ED186B019ED5314B2F
:100ED00007362E4001241D4054E7012318E7FF2860
:100EE000DFD08024E4047F4225431B2F4DDC2026E5
:100EF000F61B2C00B540FC406A1E95412543ED18B9
:100F0000040006E7002DCCD0002B00D153E7802150
:100F10006046C903084203D04046084200D11D0084
:100F20000121114047E7002B00D1B9E6EA1A500130
:100F300025D507265D1B2E40894623E7FF24002B7D
:100F400000D1ADE680226046D203104204D0404674
:100F5000104201D11D00894601224B46FF241A4050
:100F60009EE62B00DD080A0000249DE67A1CC6D010
:100F7000FF43FF28B9D11D001DE701253FE7151EDE
:100F800000D044E70022002391E60125B7E7C046E0
:100F9000FFFFFF7DFFFFFFFBF8B557464E46454676
:100FA000DE464402E0B546008846640A360EC70FA6
:100FB000002E63D0FF2E24D08023E400DB041C43EA
:100FC000002399469B467F3E434642465D02D20F30
:100FD0005B006D0A1B0E9046924665D0FF2B55D0E4
:100FE00080220021ED00D2047F3B1543F61A4346D0
:100FF0004A467B400F2A00D98DE06D489200825806
:101000009746002C54D108239946063BFF269B4661
:10101000DAE70025534602291BD0032900D1BFE09F
:10102000012928D030007F30002820DD6A0704D055
:101030000F222A40042A00D004352A0103D53000AB
:101040005C4A80301540FE2803DCAC01640AC2B261
:1010500001E0FF2200246402D205600ADB0710438E
:1010600018433CBC90469946A246AB46F8BD0122C7
:10107000101A1B287CDD00220024ECE7002C1DD177
:1010800004239946033B00269B469DE7FF3E002D27
:1010900020D1022143464A467B400A430F2AD8D832
:1010A0004548920082589746002D19D10121F1E759
:1010B0000C239946093BFF269B4685E72000FFF756
:1010C000EDFB7626431F9C4000237642361A994654
:1010D0009B4679E74A4603231A439146032186E754
:1010E0002800FFF7DBFB431F36189D4076360021B2
:1010F0007DE780240023E403FF22ACE70025802362
:10110000DB031C4228D01D4226D12B435C02640A1B
:101110004346FF229FE762016C01A24224D21B21B9
:101120000025013E012710006D005200002801DB60
:10113000944201D8121B3D4301390029F3D1140018
:10114000621E944125436DE7BA4659462500534631
:10115000022900D061E77CE78023DB031C436402A3
:10116000640A3B00FF2276E7121B1A210125D9E70A
:101170009E362A00B5402C00C240651EAC41144387
:10118000620704D00F222240042A00D004346201F6
:1011900003D4A401640A00225DE7012200245AE777
:1011A0008024E4032C436402640AFF2253E7C04610
:1011B000F49A0210FFFFFFF7349B021070B5420053
:1011C0004E024C0045026D0A120EC30F760A240E21
:1011D000C90FFF2A0FD0FF2C11D00120A24200D04E
:1011E00070BDB542FCD18B420DD0002AF8D1280049
:1011F000451EA841F4E70120002DF1D1EBE70120C5
:10120000002EEDD1E9E70020EAE7C04670B54A00BC
:101210004E02450244006D0A240EC30F760A120ED8
:10122000C90FFF2C15D0FF2A0ED0002C15D1002A93
:1012300001D1002E1CD0002D14D08B4227D00220CB
:10124000013B1840013870BD002EEED00220404214
:10125000F9E7002DFAD1FF2A0ED0002A0ED1002E78
:10126000EDD00BE001230139994308000130EAE792
:101270000020002DE7D0E2E7002EE7D18B42DED13F
:10128000944205DD0221581E08400138DBE70024A6
:10129000A24204DCB542D2D80020B542D3D2581EB7
:1012A000012398430130CEE730B5420044024D029D
:1012B000C30F4800640A120E6D0A000EC90FFF2A00
:1012C00012D0FF280CD0002A12D1002819D1002DED
:1012D00017D1002C2BD00220013B1840013826E00A
:1012E000002DF0D0022022E0002CFBD1FF281FD0DF
:1012F00000281FD1002D1DD10220013B18400138CC
:1013000015E0002C0ED08B42E5D10022904204DC87
:10131000AC42E0D80020AC4209D2581E01239843C9
:10132000013004E00123013999430800013030BD48
:10133000002DD7D18B42CED18242E7DD0221581E4B
:1013400008400138F3E7C046F0B54E4657464546DB
:10135000DE46E0B543025B0A450083B00F1C9946A8
:101360002D0EC60F002D57D0FF2D24D08020DB007E
:10137000C0041843002381469A469B467F3D7C0269
:101380007A00FB0F640A120E984623D0FF2A4BD036
:10139000E30080240020E4047F3A1C43AD186B1C5A
:1013A00047460193534677403A000F2B48D87D4972
:1013B0009B00CB589F46002B00D085E008339A460F
:1013C000063B9B467C027A00FB0FFF25640A120E47
:1013D0009846DBD1002C00D090E0524601231A43FE
:1013E00092460120DBE74C4658461700022824D0DD
:1013F000032800D1CFE00022002301284DD158025C
:10140000D205400AFF071043384303B03CBC904666
:101410009946A246AB46F0BD002B5BD104239A4609
:10142000033B00259B46AAE7FF35002C60D15246BE
:1014300002231A4392460220B1E7FF220023DEE78F
:101440004B461B0C9C464B462604360C1804614642
:101450003300220C6446000C43434E435043544334
:1014600080191A0C1218964203D9802149028C4621
:1014700064441B041B0C1004C01883015E1EB3419E
:10148000800E1843130C1B199B0103431C002301FE
:1014900079D5012362081C401443019A7F32002A47
:1014A0004DDD630704D00F232340042B00D0043408
:1014B000230103D53C4B019A1C408032FE2ABCDC40
:1014C000A3015B0AD2B29AE70C239A46093BFF2597
:1014D0009B4654E71800FFF7E1F94A46431F76257B
:1014E0009A4000236D4291462D1A9A469B4646E744
:1014F000524603231A439246032050E72000FFF789
:10150000CDF9431F2D1A9C40763D002047E78023EC
:101510000027DB03FF2272E7424666E74C463200B3
:10152000584662E780234A46DB031A4222D01C4217
:1015300020D123435B025B0A4746FF225FE701237A
:101540009A1A1B2A21DC23000199D3409E318C403A
:101550001A0023005C1EA34113435A0704D00F2234
:101560001A40042A00D004335A0111D49B015B0AAB
:10157000002244E780234A46DB0313435B025B0AF5
:101580003700FF223BE7019587E70022002336E77B
:101590000122002333E78023DB0323435B025B0A42
:1015A000FF222CE7749B0210FFFFFFF7F8B54746B8
:1015B000CE464400C20F80B547024802400A844626
:1015C000664648007F0A240EF60025009046FB0080
:1015D000000EC90FB146FF2800D185E001267140F9
:1015E000261A914257D0002E43DD002800D07FE01C
:1015F0004946002900D1AAE0013E002E00D0F7E0C4
:101600005B1A5A0100D48BE09B019C092000FFF774
:1016100045F905388440854200DDD3E0451B2300B1
:1016200020200135EB40451BAC40621E9441234312
:10163000072400251C40012241460A40002C04D00A
:101640000F211940042900D00433590100D480E04F
:101650000135ECB2FF2D00D0A3E0FF2400235B0294
:10166000E405580AD207204310430CBC9046994623
:10167000F8BD002E74D1601CC0B2012800DCA7E0C8
:101680004A469C1A620100D5B6E0002CBED1002269
:1016900000240023E3E7002E00DC85E0002846D08C
:1016A000FF2C49D080224846D204104381460122B3
:1016B0001B2E09DC20204C46801B84404A4620001B
:1016C000F240441EA04102439B185A0128D501351F
:1016D000FF2D00D1A8E00122072494491A405B089D
:1016E0000B4013431C40A6E7002E00D078E775E7B7
:1016F000FF2C54D080224946D2041143894601224E
:101700001B2E09DC20214846891B88404A460100DF
:10171000F240481E81410A439B1A5A0100D573E7E3
:10172000012241460A40590700D089E711E04846A6
:10173000002858D1FF2C0CD1DB08002B00D18CE7FE
:101740008020C00303435B025B0AFF2487E7FF2C72
:1017500025D0DB08FF2DF0D05B025B0AECB27EE700
:10176000002C4DD0FF2818D08024E404724223437B
:101770001B2A00DDC4E01C002025D440AA1A934097
:101780005A1E934123434A460500D31A884638E738
:10179000721CF8D0F243FF28EAD10A004B46FF251D
:1017A000D7E79B015B0A5AE7002E41D1651CE9B2DD
:1017B000012945DDFF2D00D14FE707244B445B088D
:1017C0001C4038E707225A4B2D1A2340144032E7B9
:1017D000002C1DD1002B7AD14B46002B00D191E07B
:1017E0000A000025B5E7013E002E19D14B446CE7F5
:1017F000FF2C84D1FF25ACE74A468846D41A05E77A
:10180000002BC5D10A00FF28C8D005004B46A0E731
:10181000002B49D14B46002B77D00A00FF2598E7D3
:10182000FF2C00D043E787E70A00FF24002316E7D8
:10183000002C15D1002B57D1FF28E6D14B467BE772
:10184000002C20D1002B57D04946002953D04B44BF
:101850005A0168D50724364A1C4001251340EAE6A0
:10186000FF28EBD08022D204764213431B2E53DC98
:101870002025AD1B1A00AB40F2405C1EA341134370
:101880004B44050021E7002BD8D04946002900D160
:1018900052E78021C9030F4200D14DE7604608425C
:1018A00000D049E74B4647E74846FF25002800D1CE
:1018B0004FE78022D203174204D06046104201D184
:1018C0004B46884601224146FF250A4041E74846EB
:1018D00000281FD01A1A500120D54A460724D31ACF
:1018E0001C4088460025A6E6741CC9D0F643FF2894
:1018F000BCD14B4620E799464B460025DB082BE739
:10190000012340E700220023A9E680230022DB0315
:10191000FF24A4E600251CE70123B1E7002AF1D04B
:1019200013000025FCE60025FAE6C046FFFFFF7D18
:10193000FFFFFFFB42024B0240004900520A5B0AD4
:10194000090E000EFF2806D00020FF2902D1180042
:10195000431E98417047FE38002AFBD1F4E7C04689
:1019600041024200C30F490A120E00207E2A0DD9FF
:101970009D2A0CD8802000040143952A0ADC962079
:10198000821AD1404842002B00D108007047034A18
:101990009818FBE7963A9140F4E7C046FFFFFF7FB7
:1019A00070B500283DD0C317C5185D40C40F28008E
:1019B000FEF774FF9E22121A962A07DCD2B208287C
:1019C00033DD083885406802400A23E0992A0BDDA0
:1019D000052329001B1AD94003001B339D402B000F
:1019E0005D1EAB4119430D00052801DD431F9D40DD
:1019F0002B000F490B406E0709D00F263540042DF0
:101A000005D004335D0102D59F220B40121A9B01C1
:101A1000580AD2B24002D205400AE40710432043DC
:101A200070BD002400220020F4E76802400AF1E7BC
:101A3000FFFFFFFB70B5041E34D0FEF72FFF9E2280
:101A4000121A962A07DCD2B208282EDD0838844004
:101A50006002400A21E0992A09DD030021001B33BE
:101A600099404B1E994105231B1ADC400C43052865
:101A700001DD431F9C4023000D490B40650709D041
:101A80000F252C40042C05D004335C0102D59F2285
:101A90000B40121A9B01580AD2B24002D205400AEA
:101AA000104370BD00220020F7E76002400AF4E70F
:101AB000FFFFFFFBF0B54F464646D6460C00090334
:101AC000C0B5490A470F5E0039431F03DB0F9C4630
:101AD00065007B0A570F1F436D0DE40F760DA1467D
:101AE000C000B846D200AB1B64457BD0002B5FDD45
:101AF000002E00D0A4E03E00164300D112E15E1E8D
:101B0000002E00D09EE1871A4346B842804101254D
:101B1000C91A4042091A0B0200D431E149024E0AA7
:101B2000002E00D16EE13000FEF7B8FE0300083B46
:101B30001F2B00DD61E120223900D21A9E40D140E6
:101B40009F400E439D4200DD51E15D1B6B1C1F2B2E
:101B500000DD7CE12021C91A3D0030008F40884023
:101B6000DD40791E8F41310007222843D9400025EE
:101B700007433A40002A09D00F233B40042B05D0ED
:101B80003B1DBB42BF417F42C9191F000B0200D45D
:101B900026E26A1CC64B55056D0D9A4200D106E13E
:101BA000C44AFF080A40530752023B43120B8EE01F
:101BB000002B00D0B8E06B1C5B055B0D012B00DC3B
:101BC00030E1871A4346B842B641CB1A76429E1B93
:101BD000330200D54CE13B003343A1D10022002465
:101BE000002570E0002B00DCE5E0002E00D183E052
:101BF000AF4EB54260D0802636043743B846382B06
:101C000000DC3EE1434613431F007A1E97413F1814
:101C100087428041404209180B0200D4B0E0A44B37
:101C200001359D4200D1C3E0A24A7B080A40012150
:101C30000F401F435108D30707221F433A4099E73B
:101C40009B4EB54238D0802636043743B846382BF1
:101C500000DDDCE01F2B00DC30E11E004746203EAB
:101C6000F740BC46202B04D04026F31A46469E403F
:101C70003243170063467A1E97411F43CCE0002B86
:101C800000D104E24346134300D159E14B07C00899
:101C900018438023C9081B03194208D04546ED08A4
:101CA0001D4204D14346D008590708432900420F7A
:101CB000C9007F4D1143C0004B07CA087C49C008CA
:101CC00003438D4268D012036D05120B6D0D002188
:101CD00012031800130B0A0D12051A43764B2D053B
:101CE00013402B435B00E4075B08234319001CBC33
:101CF00090469946A246F0BD3E00164312D05E1EA5
:101D0000002E00D000E187188742804141444042C4
:101D1000091801250B0233D5022585E764463300F7
:101D2000414610001D00C7E7002D00D0DAE00C008E
:101D30000443F3D05C1C00D19FE15D4CA64200D16E
:101D40002FE1DB43382B00DD66E11F2B00DD83E153
:101D500020240500E41A0F00DD40D940A04043468E
:101D6000A7405B1A441EA04198462F433843171AD8
:101D7000BA42924143465242991A64463500CAE635
:101D800007223A40002A00D0F6E64B07CA08484925
:101D9000FF083B438D4296D11900114300D19EE1CB
:101DA000802109030A431203120B414D8FE71500EE
:101DB000002200238BE7002B00D0C7E06B1C5F05DF
:101DC0007F0D012F00DCF1E0394DAB4200D1B9E0CD
:101DD00085180A0085428941424449425118072228
:101DE000CF076D082F4349083A401D00C2E607227D
:101DF0003049ED1A31403A40BCE63E002838864072
:101E000000279FE63800FEF749FD20308EE6434666
:101E100013431F007A1E9741C71BB84280414042BE
:101E2000091A78E60E003B0006431343002D61D1EA
:101E3000002E00D0F4E0002B00D11BE164463900F5
:101E4000100039E71A4FBB427AD03300FFE630006A
:101E50001F3DE840202B03D04021CB1A9E40374342
:101E60007B1E9F41072207433A400021002589E756
:101E7000171A4346BA42B641591A76428E1B644637
:101E80004EE61F2B00DDADE020264746F61AB74090
:101E9000B9461700B246DF404E463E43370056462D
:101EA000B240561EB24117434246DA408918AEE6A8
:101EB000FF070000FFFF7FFFFFFF0F802026474640
:101EC000F61AB740B9461700B246DF404E463E43C9
:101ED00037005646B240561EB24117434246DA40DA
:101EE000891A99E77F4CA6425BD0802424045B4288
:101EF000214327E7002E0CD1002B00D1CBE0644614
:101F000039001000774DD7E6764FBB4218D033002A
:101F100075E6002B14D04B07C00818438023C9086E
:101F20001B03194207D0FC081C4204D17907D008D2
:101F30000843E14621004C46420FC9001143C0004E
:101F4000684DB9E61D0000220023C0E6002D5BD1DC
:101F50000D00054300D1E2E65D1C00D1B0E0614D0B
:101F6000AE421FD0DB43382B71DC1F2B00DD96E027
:101F700020250F00ED1AAF40B9460700AA46DF4002
:101F80004D463D432F005546A840D940451EA84127
:101F900088440743BF18974292415142414435005B
:101FA0003AE6644635004146100085E60B000343DF
:101FB000002D00D063E6002BF5D04346134300D13B
:101FC0007AE6871887428041072241444042091837
:101FD0003A400B0200D4D5E6434B01351940C9E520
:101FE000380069E61E004746203EF740BC46202BDD
:101FF00004D04026F31A46469E40324317006346FB
:102000007A1E97411F4302E6364DAE42CAD0802564
:102010002D045B422943A6E70843411E8841A6E6FA
:10202000002B00D148E6871A4346B842B641CB1A86
:1020300076429E1B33024BD5171A4346BA42924151
:10204000591A5242891A072264463A4092E50143DE
:102050000F00791E8F419DE71C000F00203CE740D8
:10206000202B03D04024E31A99400843411E8841A5
:1020700038437CE60022002425E6171A4346BA427C
:102080009241591A5242891A6446350043E5414645
:102090001000144D10E680220024120380E61D007B
:1020A0000F00203DEF40BC46202B03D04025EB1A0B
:1020B0009940084307006346781E87411F4369E73C
:1020C000871897429B4141445B42C9183500A3E5FC
:1020D0003B003343CED0072231003A4052E6002382
:1020E0001A00F4E5FF070000FFFF7FFFF0B5574639
:1020F000DE464E464546E0B5834607000E034800DF
:1021000085B092461C00360B400DCD0F002800D143
:102110009DE0954B984239D08023F6001B041E4366
:10212000924A7B0F334399469446030063440093DD
:1021300000230026FF00029323031B0B9846630035
:10214000E40F52465B0D019400D1B3E086498B4207
:1021500000D19EE04246D100802212040A4351463B
:10216000490F11438B46814952468C46009963447E
:10217000CB1A0021D20000932B0063409A460F2E09
:1021800000D905E17A4BB6009B599F465B46334325
:10219000994600D0B8E00223082600270090029359
:1021A000CAE7CB463A0002990195019B9A4602295B
:1021B00027D0032900D180E2012944D06D49009B3A
:1021C0008C4663441C00002C38DD530700D013E21A
:1021D000D2085B46DB0109D55946674B19408B464F
:1021E0008021C9008C46009B63441C00634B9C42C9
:1021F00007DC5B4664055F075B0217431B0B620D40
:1022000002E000230027584A00211B031C0B0B0D82
:102210001B05234314055A4A380013401C435346F8
:102220006400DB0764081C43210005B03CBC9046F9
:102230009946A246AB46F0BD0122524201231B1B28
:10224000382B00DCADE1002200230027DCE75B46F1
:10225000334399465ED0002E00D18AE13000FEF76C
:102260001DFB03000B3B1C2B00DD7BE11D22D31A61
:102270005A460100DA4008398E4013005F46334366
:1022800099468F403F4B00261B1A00930023029370
:1022900052E7414653460B433B499B468C46009BC5
:1022A000634400935B46002B3BD1022300221E4374
:1022B000022161E7434613439B4637D04346002B38
:1022C00000D162E14046FEF7E9FA03000B3B1C2B0C
:1022D00000DD53E102004146083A914088461D2145
:1022E000CB1A5146D9400B0041460B439B465346FF
:1022F00093401A00009B25499C46604403008C468D
:1023000063440093002137E70323B14600900C2675
:10231000029311E700230093013304260027029360
:102320000AE70323C3461E43032125E701331E4367
:102330000022012120E700239A46802300271B0367
:10234000094A61E7802349461B03194200D1E2E0B4
:102350005946194200D0DEE00B431B0317001B0B4C
:10236000A246014A50E7C046FF07000001FCFFFFFC
:10237000B49B0210FF030000FFFFFFFEFE070000FA
:10238000FFFF0F800DFCFFFF01F8FFFFF3030000CC
:10239000D94500D9CBE000D1C6E03C004846002733
:1023A000009B013B00935B46160E1B021E4313026B
:1023B000984633041B0C9946310C0191FEF7EEF858
:1023C0004A4642430B04210C050019438A4207D9AF
:1023D0008919013D8E4203D88A4201D9851E891987
:1023E000881A0199FEF7DAF809048C464A46210456
:1023F00064464243090C030021438A4204D98919E7
:10240000013B8E4200D8F1E02D041D43AB4643460C
:10241000891A4246280C12041D0C5B46140C22003B
:102420001B041B0C5A4303946B43444302956843BB
:102430001B19150CEB189C4203D980246402A44696
:1024400060441C0C15041B042D0C20185D198142DE
:1024500077D373D00C1AA24A7D1BAF42BF4194467A
:10246000009B7F426344E01B1C00864200D1DBE0FE
:102470000199FEF793F84A4642430B04290C0700E2
:1024800019438A4207D98919013F8E4203D88A42EB
:1024900001D9871E8919881A0199FEF77FF8090466
:1024A0004A46894629044D464243090C0300294304
:1024B0008A4207D98919013B8E4203D88A4201D941
:1024C000831E89193F04891A3A00039F1A43380072
:1024D00013041B0C584381460298150C6F43434369
:1024E00045434846000C8446DB1963449F4203D9A8
:1024F000802040028446654448461F0C00041B04AB
:10250000000C7D191818A94200D284E000D17FE0A8
:1025100001231A4357E680234A461B0313431B0338
:102520001B0BAA466F4A6FE6BA4200D935E74B4605
:10253000DC0758087B081C43FF0734E70024AF4240
:1025400089D247444745A4415B466442A4196418B4
:10255000013BA6421ED2A0426DD800D1B6E0241A9B
:102560009B4678E703005A46283B9A40002791464D
:1025700088E65846FEF792F9203072E6030052468C
:10258000283B9A4093460022B4E65046FEF786F96F
:1025900020309AE6A642E2D1B845DCD9341A9B46EF
:1025A00059E71F2B65DC504C0099A4465C466144FA
:1025B00008008C4011008240D940501E82410C43DB
:1025C00014435A46DA401300620709D00F22224012
:1025D000042A05D02200141D9442894149425B1807
:1025E0001A0262D50122002300270DE68A4200D894
:1025F0000AE7831E891907E70F231340042B00D134
:10260000E6E5171D9742924153429B44FA08E0E5E4
:10261000002800D1D7E57118531EB14227D3A94233
:1026200015D358D01A0073E7002B00DC04E6012311
:1026300000229B44CDE502234744474589415B4244
:102640009C46494289190C19E344241A03E743467E
:102650005F0047459B41B8465B429E19023A891983
:10266000A94200D054E7404500D051E7ABE51A003D
:10267000F6E71F215F4649420C1BE740202B07D09D
:102680001A49009B8C46634418005B4683401A43FA
:10269000501E82413A4307270023174009D00F21DB
:1026A000002311401400042995D122005F075B022A
:1026B0001B0BD20817430022A6E5802359461B03B3
:1026C0000B431B0317001B0B064A9DE5BD42B2D806
:1026D0009B460024BFE68045B9D31A00C3E7C04635
:1026E000FF030000FF0700001E0400003E0400007E
:1026F000F0B54F464646D6468446C0B58046194E8C
:1027000018030F034D00000B5C0082463F0B6D0D5C
:10271000C90F9146640DDB0F0120B5420AD0B442C7
:1027200003D0A54201D157450CD01CBC9046994618
:10273000A246F0BD66463E43F7D1AC42F5D15446C1
:102740001443F2D10120C845EFD1994207D0002DA2
:10275000EBD163461F433800471EB841E5E7002030
:10276000E3E7C046FF070000F0B54F464646D646B1
:102770004D00C0B50E03C90F8A462C491F035C00EB
:102780008046360B6D0D91463F0B640DDB0F8D427D
:102790001ED08C4216D0002D1ED130438446002C12
:1027A00001D13A4323D06246002A1AD09A4529D053
:1027B000514602200139084001381CBC9046994618
:1027C000A246F0BD39001143E5D002204042F4E7B3
:1027D0003043FAD1AC420FD0002C0FD13A43E7D0AE
:1027E0000CE00122013B934318000130E5E763460A
:1027F0000020002BE1D0DBE73A43E6D19A45D7D160
:10280000A542D5DCA54205DBBE42D1D808D00020C8
:10281000BE42D2D250460123013898430130CCE762
:10282000C845C5D80020C845F4D3C6E7FF07000057
:10283000F0B54F464646D6464D00C0B50E03C90F0B
:102840008A462E491F035C008046360B6D0D91466B
:102850003F0B640DDB0F8D4218D08C4211D0002D40
:1028600018D130438446002C1ED13A431CD1634614
:102870000020002B30D05146022001390840013899
:102880002AE039001143EAD0022025E03043FBD191
:10289000AC4226D0002C26D13A4324D15146022006
:1028A00001390840013817E06246002A0FD09A45E6
:1028B000E1D1A54205DBBE42DDD819D00020BE42E1
:1028C0000AD25046012301389843013004E0012226
:1028D000013B9343180001301CBC90469946A24628
:1028E000F0BD3A43D0D19A45C5D1A542C3DCE0E75B
:1028F000C845C0D80020C845E3D3EDE7FF07000076
:10290000F0B55746DE464E464546E0B583460600DE
:102910000F03480087B092461D003F0B400DCC0FBF
:10292000002800D16FE0DE4B984238D08023FF00B2
:102930001B041F43730F3B430193DA4B0027994657
:1029400000239B46F60081442B0369001B0B524673
:102950009846490DED0F002900D185E0D04B9942F2
:1029600000D173E04346DA0080231B041343524630
:10297000CC48520F84461343524600206144D20093
:1029800089442100694000918C46012149448A46CE
:102990000F2F00D990E0C449BF00CF59BF465B4616
:1029A0003B43019300D06AE10223082700268146B9
:1029B0009B46C9E732005846019B614600910228B8
:1029C00000D175E0032800D1FEE1012800D02CE100
:1029D00000230027002600253F032A0D3F0BB348A4
:1029E00012053A4302401B051343009A5B00D107CE
:1029F0005B080B433000190007B03CBC9046994679
:102A0000A246AB46F0BD5B463B43019300D12FE1AC
:102A1000002F00D1A5E13800FDF740FF03000B3B7C
:102A20001C2B00DD96E11D22D31A5A460100DA4024
:102A30005E4608398F4013008E403B4301939C4B08
:102A400000271B1A994600239B467DE741465346C3
:102A50000B4393498C46E144002B00D01AE102223B
:102A60000220174300228CE7134300D10DE14346B7
:102A7000002B00D181E14046FDF710FF02000B3A28
:102A80001C2A00DD72E10100434608398B4098465C
:102A90001D239A1A5346D3401A0043461343524605
:102AA0008A404946081A824989468144002068E7DD
:102AB0007B4B002700268EE7140C1204120C110029
:102AC000370C3604350C794328008C462E006043C1
:102AD0006044834656432100300C80465846794373
:102AE00040440291844506D98846802149028C469B
:102AF000E044414602913604010C360C00048B463A
:102B000081191E0C1B041B0C0391190079438C4680
:102B1000280075436544A8465843050C454477434F
:102B2000A94203D9802149028C466744290C8C466E
:102B300039000004000C2D042D186144AB440591AC
:102B40005946049101990F043F0C080C3900514378
:102B50004243904602008C46090C8B4662437C43FC
:102B600044445C44A04503D980214902884642443C
:102B7000210C884661460904090C8C4639005943EA
:102B8000434370437E430F0CF6182404BE1964447B
:102B900042448C46B34203D980235B0298464044AA
:102BA000029B61469846049B370443449B46AB45D1
:102BB000AD416B420D0405992D0C8C467F1967447D
:102BC000FD18A8465D462D19A542A44193466442CE
:102BD000A446C344DC448F42BF4198459B41934582
:102BE0009241A445A4415B427F421F43360C5242AE
:102BF0006442BF192243BF18624638184302D20DFF
:102C0000039913436A020A43501E82416146ED0D47
:102C10002A434E023243D90100D4B3E001265008C2
:102C200032400243DE0732435B08224C5444002CFE
:102C300062DD510709D00F201040042805D0101D77
:102C40009042924152429B180200D90104D580243F
:102C50001948E400034054441848844200DD27E743
:102C60005E075B02D2081F0B630516435B0DB2E6DD
:102C7000002399460133042700269B4664E603237C
:102C8000019781460C279B465EE6012201201743EF
:102C9000002276E6032303201F43434671E6C04625
:102CA000FF07000001FCFFFFF49B0210FFFF0F80F5
:102CB0000DFCFFFFFF030000FFFFFFFEFE0700000B
:102CC0000023802700933F030026434B83E6019BAC
:102CD0003200A446584670E6AC466EE6802701995D
:102CE0003F0339422DD03B422BD11F433F033F0BC3
:102CF00000951600384B6EE601252D1B382D00DDA2
:102D000066E61F2D40DC35481C005044160082400A
:102D10008440EE40501E824134431443EB4062072E
:102D200009D00F222240042A05D02200141D94420B
:102D3000804140421B181A023ED50123002700267D
:102D400049E68027019B3F031F433F033F0B00944D
:102D5000214B40E603005A46283B9A400026019248
:102D60006DE65846FDF79AFD203057E603005246BF
:102D7000283B9A401300002293E65046FDF78EFD53
:102D800020307BE6CA4650E71F201E004042041B4D
:102D9000E640202D03D0124C5444A3401A43501E49
:102DA0008241324307260027164009D00F20002316
:102DB000104014000428B9D122005E075B021F0BEB
:102DC000D2081643002306E680273F031F433F0334
:102DD0003F0B1600004BFEE5FF0700001E0400003D
:102DE0003E040000F8B557464E464546DE460C0008
:102DF0000903E0B5490A460F5F0031431E03DB0FAC
:102E0000760A9B46530F3343C84E6500C000E40F5B
:102E1000D2006D0DA24681467F0D9C469046B7427A
:102E200000D1B9E05B46012673409B46EE1BA345EB
:102E300000D183E0002E63DD002F00D0B1E06346B7
:102E4000134300D123E1731E002B00D0BAE1861A90
:102E50006346B04280410125C91A4042091A0B025B
:102E600000D447E149024B0A98464346002B00D163
:102E700089E14046FDF712FD0300083B1F2B00DDF2
:102E80007CE120223000D21A4146D0409940020015
:102E90009E400A439D4200DD6AE15D1B6B1C1F2BB7
:102EA00000DD94E1202110003500C91A8E40DA407F
:102EB0008840DD40711E8E41110007222843002505
:102EC00006433240002A09D00F233340042B05D09B
:102ED000331DB342B641764289191E000B0200D45D
:102EE0003DE26A1C914B55056D0D9A4200D119E1E6
:102EF0008F4AF6080A40570752023743120B9BE0ED
:102F0000002E00D0C5E06E1C7605760D012E00DC8B
:102F100048E16746861ACB1BB042BF417F42B846A4
:102F20001F004346FF1A3B00B8461B0200D55FE175
:102F300037439AD100220024002579E0002E00DCDE
:102F4000FAE0002F00D18DE0784B9D4267D08023BE
:102F500067461B041F43BC46382E00DC52E1634623
:102F600013435A1E93411E1886428041404209185D
:102F70000B0200D4BEE06D4B01359D4200D1D2E082
:102F80006B4A73080A4001210E401E435108D307C3
:102F900007221E43324095E71E00164300D045E746
:102FA00040E7624B9D423AD0802367461B041F4393
:102FB000BC46382E00DDEBE01F2E00DC3AE133008A
:102FC0006746203BDF403B00202E05D04027BF1B3B
:102FD0006646BE40324390464646721E9641334393
:102FE000DAE0002B00D114E26346134300D168E11C
:102FF00080234E07C008C9081B030643194208D0A6
:103000006046C008184204D163460100D2085E073A
:103010001643F3009946C900720F444D11434B46C5
:10302000DE08424B4F073743CA089D4200D16EE08D
:1030300012036D05120B6D0D00211203130B0A0D07
:1030400012051A433B4B2D0513402B435B00E4074D
:103050005B082343380019003CBC90469946A246C1
:10306000AB46F8BD6346134311D0731E002B00D04E
:1030700007E18618864280416144404209180125D3
:103080000B0237D502257BE73E00614691463500AD
:10309000C5E75C46002D00D0E1E00B000343F3D010
:1030A000731C00D1ACE1214B9F4200D13AE1F343C4
:1030B000382B00DD6FE11F2B00DD8CE120250E0099
:1030C000ED1AAE40B0460600AA46DE4045463543FE
:1030D0002E005546D940A8406346451EA8415B1ABC
:1030E0009C463043161AB242924163465242991AA4
:1030F0003D00B4E607223240002A00D0E4E60B4B44
:10310000F6084F073743CA089D4200D090E73B00BE
:10311000134300D1A6E180231B031A431203120BB1
:10312000024D89E715000022002785E7FF07000010
:10313000FFFF7FFFFFFF0F80002E00D0C7E06B1C5A
:103140005E05760D012E00DCF0E0C84DAB4200D1EB
:10315000B9E085180A008542894162444942511804
:103160000722CE076D082E43490832401D00A9E60C
:10317000BF49ED1A114007223240A3E63200283839
:103180008240002686E63000FDF788FB203073E69B
:10319000634613435A1E9341C61AB04280414042CF
:1031A000091A5CE60E00674606431743002D5ED100
:1031B000002E00D0F3E0002F00D11EE15C466146F6
:1031C00091462CE7A94FBE427BD01E00F1E61000CD
:1031D0001F3DE840202B03D04021CB1A9A401643D4
:1031E000731E9E410722064332400021002583E7DB
:1031F000161A6346B2428041591A40420B1A984649
:103200005C4632E61F2E00DDABE02027BB1B9A4652
:1032100063465746BB40994613004F46F3401F4351
:103220003B005746BA40571EBA4113436246F2402C
:10323000891898E62027BB1B9A4663465746BB4031
:10324000994613004F46F3401F433B005746BA4090
:10325000571EBA4113436246F240891A9CE7834BDA
:103260009F425FD080252D047342294320E7002E22
:103270000CD1002F00D1D0E05C46614691467B4DD9
:10328000CDE67A4FBE421CD01E0065E6002F18D056
:10329000C0084E0706438020C9080003014208D039
:1032A0006346DC08044204D12100DA46D2085E07F6
:1032B0001643F300994601245346C900720F114387
:1032C0001C406A4DABE61D0000220027B4E6002D2D
:1032D00059D10B00034300D1D6E6731C00D1B2E0F4
:1032E000624B9F421ED0F343382B6FDC1F2B00DD57
:1032F00097E020250E00ED1AAE40B0460600AA4623
:10330000DE40454635432E005546A840D940451E6F
:10331000A8418C440643B6189642924151426144FA
:103320003D0025E63D006146914678E60B000343EB
:10333000002D00D055E6002BF5D06346134300D195
:103340006DE6861886428041614440420918002299
:103350000B0200D4D0E6464B01351940B2E5B14628
:103360005DE633006746203BDF403B00202E05D062
:103370004027BF1B6646BE40324390464646721EFB
:1033800096413343EFE5394B9F42CBD080252D0446
:1033900073422943A8E70843411E8841A2E6002F53
:1033A00000D13CE66346861ACF1AB0429B415B428D
:1033B000FB1A98461B024ED5161A6346B24292413A
:1033C000591A5242891A5C4600227BE501430E00DD
:1033D000711E8E419FE71D000E00203DEE40B0465D
:1033E000202B04D04025EB1A9940084381464846DB
:1033F0004346411E8841184374E60022002417E624
:10340000161A6346B2429241591A5242891A3D0035
:1034100025E561469146154D01E680220024120300
:1034200079E61D000E00203DEE40B046202B04D072
:103430004025EB1A9940084381464E464346711E8B
:103440008E411E4367E7861896429B4161445B426A
:10345000C9183D008CE547463743CED00722414688
:10346000324049E600273A00E6E5C046FF07000083
:10347000FFFF7FFF70B50C4E0D031C0349005B007E
:103480002D0B490D240B5B0DB14208D006490020DD
:103490008B4203D114432000441EA04170BD05435C
:1034A0000120002DFAD1F1E7FF07000030B5144DDF
:1034B0000A034B00120B5B0DC90F0024AB4211DD58
:1034C000104CA34210DC8024640322430E4CE41A07
:1034D0001F2C0CDD0D48C31ADA4013005C42002992
:1034E00000D11C00200030BD094BCC18FAE7094D73
:1034F000E040AC4663449A4013000343EEE7C04605
:10350000FE0300001D04000033040000130400004B
:10351000FFFFFF7FEDFBFFFF70B500282DD0C31725
:10352000C5185D40C40F2800FDF7B8F9154B1B1AEC
:103530005B055B0D0A2815DD0B38854000222D0345
:103540002D0B002110002D030A0D2D0B12052A430F
:103550000D4D1B052A4013435B00E4075B08234322
:10356000190070BD02002900153291400A000B219C
:10357000081AC5402D032D0BE3E700240023002586
:103580000022DEE71E040000FFFF0F8010B5041EBE
:1035900025D0FDF783F9144B1B1A5B055B0D0A2838
:1035A00012DD0B38844000222403240B002110007C
:1035B00024030A0D240B120522430C4C1B05224048
:1035C00013435B00590810BD0200210015329140E1
:1035D0000A000B21081AC4402403240BE6E7002349
:1035E00000240022E2E7C0461E040000FFFF0F8017
:1035F0004100090E4B1C70B5DBB24602750AC40FC0
:10360000012B14DDE0239B006D07360BCB18002146
:103610000A0D280012051C4D32435B052A405B0849
:1036200013435B00E4075B082343190070BD0029C6
:1036300014D1002D1ED02800FDF730F90A281CDC1B
:103640000B232A001B1ADA40030015339D400F4B51
:1036500012031B1A5B05160B5B0DD8E7002D06D075
:10366000320B802636036D071643094BCFE7084B14
:103670000026CCE700230026C9E703002A000B3B05
:103680009A400025E3E7C046FFFF0F808903000052
:10369000FF070000F0B54C00640D0B03621C5B0AD1
:1036A000460F5205C90F1E43C500520D012A29DDE0
:1036B000374BE718FE2F1CDC002F3BDD8001431E3B
:1036C00098410722F3006D0F03432B431A40002A51
:1036D00004D00F221A40042A00D004338022D204DE
:1036E0001A4024D00137FAB2FF2F02D09B01580AAA
:1036F00001E0FF2200204002D205400AC907104322
:103700000843F0BD3543002C04D1002D0AD100221E
:103710000020F0E7002DECD08020C0033043FF22D2
:10372000E9E7002400235B02580AE2B2E3E7DB0882
:103730003C00F8E73B001733F3DB80231B043343E3
:103740001E26F61B1F2E14DD02225242D71B1A0022
:10375000FA401700202E04D00E4A94466444A34039
:103760001D432B005D1EAB4107223B431A4000273F
:10377000ADE7094A2800A218954093406C1EA54168
:10378000F04007222B4303431A4000279FE7C0461F
:1037900080FCFFFFA2FCFFFF82FCFFFFF0B54E465E
:1037A0005746DE464546E0B50F00002183B00600CF
:1037B0008946002F06DA3900002746428F41012151
:1037C00049428946002B07DA4946C9431000894619
:1037D0001900002342428B4134003D009246984636
:1037E000BB4269D866D041465046FDF775F883461E
:1037F00039003000FDF770F85B461B1A9C46203BF1
:103800009B4600D575E05146584681400B00514615
:10381000604681400A00BB4261D85ED034003D0062
:103820005946A41A9D41002900DA7AE000210020BF
:1038300001260090019159468E400196614601266D
:103840008E4061460096002950D0D90756085F087F
:103850000E4363460EE0AF4201D1A6420CD8A41B32
:10386000BD41012124196D410022013B64185541DD
:10387000002B06D0AF42EED9013B24196D41002B3D
:10388000F8D1009801995B4600196941002B3DDB96
:103890002E00DE4063462C00DC405B46002B4BDBF9
:1038A00034005D46AC4023006446A6403200801AD6
:1038B000994103E0B24296D9002000214B46002BEB
:1038C00004D003000C0000215842A14103B03CBCCD
:1038D00090469946A246AB46F0BDB1429ED9002122
:1038E00000200090019161460029AED10098019915
:1038F000E4E72023624651469B1AD9404046009196
:1039000061468840030000990B4380E7624620230C
:103910009B1A2A009A40260013006246D6401E4396
:10392000B8E7614620260127761A00200021F740DB
:1039300000900191019781E7674620236246350098
:10394000BC409B1ADD4023002B43ADE7024670B517
:103950000A4392072AD11E4DEE0104C808C9541B20
:103960009443344017D0D0B2D9B2401A2106014353
:1039700010D190B299B2401A210401430AD1100229
:103980001902000A090A401A2102014302D1100E4D
:10399000190E401A70BD9A42DFD010BA19BA884287
:1039A00001D9012070BD0020C04370BD02780B78A2
:1039B00001300131002A09D09A4207D102780B78F0
:1039C00001300131002A01D09A42EFD0D01A70BDE7
:0439D00001010101EF
:1039D400F0B5354C354BA5440493354B04005A7867
:1039E4001D7812022A439D780E002D042A43DD78A7
:1039F4002D061543ED182B68EB1A1A88042A05D9ED
:103A04009B88002B02D0EB58032B07D029492000B8
:103A140015F04BFD2000284B9D44F0BD2EA802F06C
:103A240075FD04AB019380231B012EAA290000938A
:103A340005A8224B13F028FA05A813F0B1FA0021C7
:103A440005A813F07FFB002341681D4AF058C850B5
:103A540004339342FAD105A813F026FB1949051E35
:103A64001AD1010005A813F091FB47687B683E68F2
:103A7400181C311C0393FCF7FBFE002801D0012520
:103A8400039EB968301CFCF7DFFE0F49002803D100
:103A94000E49002D00D10E49200015F006FD05A8A1
:103AA40013F05EFAB6E7C0463CEFFFFFB0DF02104A
:103AB400FC010020349C0210C4100000486C01205A
:103AC400101000004A9C0210679C0210609C0210B7
:043AD400589C0210E8
:103AD800F0B5434989B0434815F046FC424D2B6880
:103AE8001A00424B9A425EDC0121192015F0CEFDE6
:103AF800FA2715F01DFD00263D4BBF0018601A205F
:103B080015F048FD3B4A7300D0523B4A9B180022EF
:103B18001A8015F00DFDFFF735FD0090019130007A
:103B2800FFF7F6FC0022354BFEF7E6FE0022334B8A
:103B3800FEF7D8FA2E4B029003911868FFF722FD82
:103B480002000B0002980399FDF7B0FF02000B007A
:103B580000980199FCF73CFE041EDAD10136BE42FA
:103B6800CDD10100192015F091FDFA2723000A2272
:103B78002149204813F0C8FCBF001E4B185F1E4B9C
:103B880040431B5F02345B43C018FFF7C1FC1EF0C3
:103B980033F82E68731C2B60FFF778FD184BB600BE
:103BA800F050BC42E9D12B681A00104B9A4210DD44
:103BB800134905A8FFF70AFF12490A4815F0D4FB74
:103BC80005A9084815F0E2FB002305A82B6015F0AD
:103BD8001BFCFA20400015F0BBFC09B0F0BDC04644
:103BE8006B9C0210882F0120BC4F012003040000A9
:103BF800EC530120EA6301201A5C012000408F4049
:083C0800AC3F0120729C021088
:103C1000962110B58901044814F00EF801211920ED
:0C3C200015F0FAFC10BDC046882F0120F2
:063C2C000130800070472A
:103C320030B5041E02D14842484130BD056800201B
:103C420003008D42F9D19D4201DC0120F5E7990084
:103C5200601840685158884201D10133F3E70020CF
:023C6200EBE78E
:103C640010B50123884208D0031E06D00B1E04D0D1
:0E3C74000A1D0968FFF7DBFF0300180010BDF2
:063C8200013080007047D4
:103C8800034B0A2802D8034B8000C358180070471A
:083C9800B09C0210849C021094
:103CA0000EB403B503AA02CA036801929B68984741
:083CB00002B008BC03B0184784
:0C3CB80010B5006803685B68984710BDF9
:103CC4000123002803D0013843425841430018001F
:023CD400704737
:103CD8000138C3B20020042B01D8014AD05C7047D8
:043CE8000BA4021017
:103CEC0070B5050010001A00002D04D10A49FFF729
:103CFC00D1FF012070BD2C68082C08D80023A4002B
:103D0C00A34206D0EA185268CA500433F8E70349B4
:103D1C00EDE70020EEE7C046B3A40210E1A40210C8
:103D2C000368C31A1A8800208A4200D9585A70476F
:103D3C0010B50C210400FFF7F3FF2418031E01D06B
:083D4C002368E318180010BD04
:103D540010B5030014000022092807D8FCF782FBE1
:103D6400051216181C1E2014221A012200200A70A3
:103D74000A78824205D11A000B492000FFF78EFF12
:103D8400012010BD0A22F1E70722EFE70222EDE746
:103D94000322EBE70922E9E70422E7E70522E5E746
:0C3DA4000622E3E70822E1E722A5021056
:103DB00070B505001400FFF7B9FF002800D02C5C97
:043DC000200070BDB2
:0C3DC40010B500220A21FFF7F1FF10BD2E
:103DD00070B505001400FFF7A9FF002800D02C588B
:043DE000200070BD92
:103DE40070B505001400FFF79FFF002800D02C5683
:043DF400200070BD7E
:103DF80070B50500141CFFF795FF002800D02C585B
:043E0800201C70BD4D
:103E0C00F0B51C00002385B00A9E05001700336036
:103E1C00772900D968E20800FCF72AFBBC020901EB
:103E2C008002780043019B046602660266022F0240
:103E3C0066020D03090128036602EB005203090117
:103E4C00A1026602660266023A04F503F5016802F5
:103E5C0080048501660266025A046602660210023C
:103E6C006602A701B604660266026602D304F20279
:103E7C00D70226058F035005CA0166026602F004BC
:103E8C0066024D06BE03B400660266028305660236
:103E9C0066026602660266026602660266026602D6
:103EAC006602C105EB0566026602660266026602E0
:103EBC00D3046602660208066602A2055306D30402
:103ECC00D3042C0666028206660266029D06D304A3
:103EDC006602D3046602660266026602660220046B
:103EEC00BE066602D90666020B05F7066602660276
:103EFC0066026602660266026602660216076602C1
:103F0C0066026602660266023707580723681821A4
:103F1C001B682000984704002800FFF74DFF07009E
:103F2C0001282DD12800FFF703FF051E28D0002201
:103F3C000421FFF751FFC0B2FFF7BEFE0022207034
:103F4C0006212800FFF73EFF0022606008212800B0
:103F5C00FFF738FF00220A21A0602800FFF73CFF82
:103F6C00C0B2FFF7B3FE3A0020730C212800FFF714
:103F7C0029FF3A0020610E212800FFF723FF606122
:103F8C003460B1E1236802211B682000984700903F
:103F9C00039028000294FFF70FFF252800D095E32B
:103FAC002800FFF7C5FE041E00D18FE30022042178
:103FBC00FFF712FF3A000099C0B2FFF7C5FE0022CE
:103FCC00050006212000FFF707FF039BC0B2591C18
:103FDC003A00FFF7B9FE0543EDB2002D00D175E3B1
:103FEC000399002902D002A8FFF760FE012005B05A
:103FFC00F0BD236801211B682000984704002800AD
:10400C00FFF7DAFE07000428BAD12800FFF790FE6C
:10401C000028B5D000223900FFF7DEFE030001288E
:10402C0003D00238434243415B002370A8E7236866
:10403C0020001B682821984704002800FFF7BCFECD
:10404C0005289DD12800FFF773FE051E98D000228D
:10405C000421FFF7C1FEC0B2FFF72EFE0022207034
:10406C0006212800FFF7AEFE002260600821280020
:10407C00FFF7A8FE0022A0600A212800FFF7A2FE8D
:10408C000022E0600C212800FFF79CFE002220613A
:10409C000E212800FFF7A0FEC0B2FFF717FE207517
:1040AC006EE7236820001B681C2198470400280039
:1040BC00FFF782FE022800D062E72800FFF738FEE7
:1040CC00051E00D15CE700220421FFF785FEC0B27B
:1040DC00FFF7F2FD0022207006212800FFF772FE88
:1040EC000022606008212800FFF76CFE0022A0600F
:1040FC000A212800FFF766FE00220C21E060280050
:10410C00FFF76AFEC0B2FFF7E1FD012220740E2119
:10411C002800FFF757FE0122606110212800FFF7ED
:10412C0051FEA0612CE7236808211B6820009847EA
:10413C0004002800FFF740FE0700062800D01FE708
:10414C002800FFF7F5FD051E00D119E70022042118
:10415C00FFF738FE0022206039002800FFF73CFEF4
:10416C00C0B2FFF7B3FD20710AE7236820001B687B
:10417C000221984704002800FFF71EFE1F2800D0DC
:10418C00FEE62800FFF7D4FD051E00D1F8E600225C
:10419C000621FFF721FEC0B2FFF798FD00226070E8
:1041AC0004212800FFF7FEFD431E98412070E7E62E
:1041BC00236820001B680321984704002800FFF7A0
:1041CC00FBFD462800D0DBE62800FFF7B1FD051EFD
:1041DC0000D1D5E600220621FFF7FEFDC0B2FFF7A5
:1041EC0075FD0022607004212800FFF7DBFD431EE3
:1041FC0098410022207008212800FFF7D3FD431EB0
:10420C009841A070BCE6236820001B6801219847E8
:10421C0004002800FFF7D0FD072800D0B0E62800E6
:10422C00FFF786FD002800D1AAE600220421FFF743
:10423C00D3FDC0B2FFF74AFD2070A1E62368200031
:10424C001B680121984704002800FFF7B5FD1428CE
:10425C0000D095E62800FFF76BFD002800D18FE613
:10426C0000220421FFF7B8FD0300012803D0023817
:10427C00434243415B00237082E6236803211B68A1
:10428C00200098470090039028000294FFF794FDBB
:10429C000190082826D12800FFF74AFD041E21D0E2
:1042AC0000220421FFF798FDC0B2FFF70FFD009B21
:1042BC000022187001992000FFF774FD431E9841ED
:1042CC00009B0022987006212000FFF785FD002836
:1042DC0006D0012804D0DE493800FFF7DBFC7FE66E
:1042EC00009B5870009B3360002080E62368200000
:1042FC001B680421984704002800FFF75DFD09287E
:10430C0000D03DE62800FFF713FD002800D137E66A
:10431C0000220421FFF76AFD206031E623682000AB
:10432C001B680821984704002800FFF745FD0A2860
:10433C0000D025E62800FFF7FBFC051E00D11FE688
:10434C0000220621FFF748FDC0B2FFF7BFFC002298
:10435C00207104212800FFF735FD206010E623684A
:10436C0020001B680121984704002800FFF724FD5A
:10437C00152800D004E62800FFF7DAFC002800D14D
:10438C00FEE500220421FFF727FDC0B2FFF79EFCDB
:10439C002070F5E5236820001B6801219847040074
:1043AC002800FFF709FD0B2800D0E9E52800FFF7EE
:1043BC00BFFC002800D1E3E500220421FFF70CFD2F
:1043CC00C0B2FFF783FC2070DAE5236820001B687D
:1043DC000121984704002800FFF7EEFC1D2800D0AF
:1043EC00CEE52800FFF7A4FC002800D1C8E5002288
:1043FC000421FFF7F1FCC0B2FFF768FC2070BFE5A9
:10440C00236820001B680121984704002800FFF74F
:10441C00D3FC1C2800D0B3E52800FFF789FC00284A
:10442C0000D1ADE500220421FFF7D6FCC0B2FFF7A6
:10443C004DFC2070A4E5236820001B6801219847DF
:10444C0004002800FFF7B8FC0C2800D098E52800E1
:10445C00FFF76EFC002800D192E500220421FFF743
:10446C00BBFCC0B2FFF732FC207089E5236820004A
:10447C001B681021984704002800FFF79DFC0D28AD
:10448C0000D07DE52800FFF753FC051E00D177E531
:10449C0000220421FFF796FC002220600621280050
:1044AC00FFF7A4FC0022606008212800FFF79EFCA7
:1044BC000022A0600A212800FFF798FCE0605FE56D
:1044CC00236810211B682000984700900390280057
:1044DC000294FFF771FC0E282DD12800FFF728FC61
:1044EC00041E28D000220421FFF776FCC0B2FFF78F
:1044FC00EDFB009B0022187006212000FFF776FCD4
:10450C00009B0022586008212000FFF76FFC009BE5
:10451C00002298600A212000FFF75EFC002807D0DB
:10452C00012805D0C2B24B493800FFF7B3FB57E561
:10453C00009B1873D6E64849CEE6236820001B681A
:10454C001021984704002800FFF736FC472800D0BC
:10455C0016E52800FFF7ECFB051E00D110E5002244
:10456C000421FFF739FCC0B2FFF7B0FB002220702A
:10457C0006212800FFF73AFC002260600821280081
:10458C00FFF734FC0022A0600A212800FFF70AFC88
:10459C00431E98412073F3E4236820001B6810210C
:1045AC00984704002800FFF707FC452800D0E7E4F3
:1045BC002800FFF7BDFB051E00D1E1E40022042119
:1045CC00FFF70AFCC0B2FFF781FB00222070062126
:1045DC002800FFF70BFC0022606008212800FFF781
:1045EC0005FC0022A0600A212800FFF7DBFB431E1C
:1045FC009841012220730C212800FFF7D3FB431EA6
:10460C0098416073BCE4236820001B680221984722
:10461C0004002800FFF7D0FB0F2814D12800FFF767
:10462C0087FB051E0FD000220821FFF7BBFB431EA2
:10463C009841002220700A212800FFF7B3FB431E8B
:10464C00984160709CE400232370637098E4C0462A
:10465C0010A402103AA4021059A4021023682000DE
:10466C001B680121984704002800FFF7A5FB4A2886
:10467C0000D085E42800FFF75BFB002800D17FE425
:10468C0000220421FFF78EFB431E9841207077E433
:10469C00236824211B682000984700900390280071
:1046AC000294FFF789FB112810D12800FFF740FB7B
:1046BC00041E0BD00421FFF733FB2418002805D06F
:1046CC002368E418E94B002C00D0EAE0039B0AE6CF
:1046DC00236820001B680C21984704002800FFF772
:1046EC006BFB122800D04BE42800FFF721FB051EC2
:1046FC0000D145E400220421FFF764FB0022206076
:10470C0006212800FFF75EFB0022606008212800CC
:10471C00FFF748FB431E9841207231E423682000C8
:10472C001B680421984704002800FFF745FB132859
:10473C0001D0FFF725FC2800FFF7FAFA002801D179
:10474C00FFF71EFC00220421FFF73CFB2060FFF763
:10475C0017FC236820001B680421984704002800DC
:10476C00FFF72AFB5E2801D0FFF70AFC2800FFF7B1
:10477C00DFFA002801D1FFF703FC00220421FFF728
:10478C0021FB2060FFF7FCFB236820001B68042141
:10479C0098470027040007602800FFF70DFB172837
:1047AC0001D0FFF7EDFB2800FFF7C2FAB84201D1A8
:1047BC00FFF7E6FB3A000421FFF704FB2060FFF74C
:1047CC00DFFB236820001B680121984704002800A8
:1047DC00FFF7F2FA1B2801D0FFF7D2FB2800FFF7F6
:1047EC00A7FA002801D1FFF7CBFB00220421FFF729
:1047FC00D9FA431E98412070FFF7C2FB23682000B2
:10480C001B680421984704002800FFF7D5FA2328D9
:10481C0001D0FFF7B5FB2800FFF78AFA002801D179
:10482C00FFF7AEFB00220421FFF7CCFA2060FFF764
:10483C00A7FB236820001B6804219847040028006C
:10484C00FFF7BAFA4F2801D0FFF79AFB2800FFF7C1
:10485C006FFA002801D1FFF793FB00220421FFF728
:10486C00B1FA2060FFF78CFB236824211B68200021
:10487C0098470090039028000294FFF79DFA1E2899
:10488C0000D023E72800FFF753FA041E00D11DE7E0
:10489C000421FFF745FA2318041E01D01A689C184E
:1048AC00734B00993A002000FFF71AFA039900287D
:1048BC0001D0FFF796FB23680B6207E72368200003
:1048CC001B681421984704002800FFF775FA20286C
:1048DC0001D0FFF755FB2800FFF72AFA051E01D17E
:1048EC00FFF74EFB00220421FFF76CFA0022206038
:1048FC0006212800FFF766FA0022606008212800D4
:10490C00FFF760FA0022A0600A212800FFF75AFA8C
:10491C000022E0600C212800FFF754FA2061FFF719
:10492C002FFB236820001B680121984704002800F6
:10493C00FFF742FA282801D0FFF722FB2800FFF7E7
:10494C00F7F9002801D1FFF71BFB00220421FFF728
:10495C0043FA3A002100C0B2FFF7F6F9FFF710FB5B
:10496C00236820001B680121984704002800FFF7EA
:10497C0023FA392801D0FFF703FB2800FFF7D8F9F9
:10498C00002801D1FFF7FCFA00220421FFF724FADA
:10499C003A002100C0B2FFF7D7F9FFF7F1FA23680C
:1049AC0020001B680C21984704002800FFF704FA2C
:1049BC00312801D0FFF7E4FA2800FFF7B9F9051EFA
:1049CC0001D1FFF7DDFA00220421FFF705FAC0B28E
:1049DC00FFF772F90022207006212800FFF7F2F988
:1049EC000022606008212800FFF7ECF9A060FFF7B7
:1049FC00C7FA236820001B6801219847040028008F
:104A0C00FFF7DAF9322801D0FFF7BAFA2800FFF7DE
:104A1C008FF9002801D1FFF7B3FA00220421FFF728
:104A2C00C1F9431E98412070FFF7AAFA23682000B1
:104A3C001B680121984704002800FFF7BDF93728AF
:104A4C0001D0FFF79DFA2800FFF772F9002801D179
:104A5C00FFF796FA00220421FFF7BEF93A00210075
:104A6C00C0B2FFF771F9FFF78BFAC0467DA40210B4
:104A7C0085A40210236820001B68082198470400B5
:104A8C002800FFF799F93B2801D0FFF779FA2800A5
:104A9C00FFF74EF9051E01D1FFF772FA002204212F
:104AAC00FFF790F90022206006212800FFF78AF911
:104ABC006060FFF765FA96491000FFF7EBF8FFF717
:104ACC0095FA236820001B681021984704002800E1
:104ADC00FFF772F93A2801D0FFF752FA2800FFF7D6
:104AEC0027F9051E01D1FFF74BFA00220421FFF72D
:104AFC007DF90022206006212800FFF777F90022BB
:104B0C00606008212800FFF75DF90022A0600A21EF
:104B1C002800FFF747F9431E98412073FFF730FA3E
:104B2C00236820001B680421984704002800FFF725
:104B3C0043F93D2801D0FFF723FA2800FFF7F8F8D6
:104B4C00002801D1FFF71CFA00220421FFF73AF9E3
:104B5C002060FFF715FA236820001B68082198478E
:104B6C0004002800FFF728F9402801D0FFF708FAC5
:104B7C002800FFF7DDF8051E01D1FFF701FA00222E
:104B8C000421FFF71FF90022206006212800FFF7FF
:104B9C0019F96060FFF7F4F9236820001B68042101
:104BAC00984704002800FFF707F94B2801D0FFF7BE
:104BBC00E7F92800FFF7BCF8002801D1FFF7E0F96E
:104BCC0000220421FFF712F92060FFF7D9F92368BE
:104BDC0020001B680121984704002800FFF7ECF81F
:104BEC004D2801D0FFF7CCF92800FFF7A1F80028D9
:104BFC0001D1FFF7C5F900220421FFF7EDF8431EA0
:104C0C00984101302070FFF7BBF9236820001B6826
:104C1C000121984704002800FFF7CEF8502801D056
:104C2C00FFF7AEF92800FFF783F8002801D1FFF752
:104C3C00A7F902220421FFF7CFF80300042800D0C3
:104C4C0002232370FFF79CF9236820001B680821BE
:104C5C00984704002800FFF7AFF8572801D0FFF75A
:104C6C008FF92800FFF764F8051E01D1FFF788F9CA
:104C7C0000220421FFF7A6F800222060062128005C
:104C8C00FFF7A0F86060FFF77BF9236820001B6832
:104C9C000821984704002800FFF78EF85C2801D003
:104CAC00FFF76EF92800FFF743F8051E01D1FFF757
:104CBC0067F900220421FFF785F800222060062105
:104CCC002800FFF77FF86060FFF75AF9236820008F
:104CDC001B680821984704002800FFF76DF85D2831
:104CEC0001D0FFF74DF92800FFF722F8051E01D17E
:104CFC00FFF746F900220421FFF764F80022206038
:104D0C0006212800FFF75EF86060FFF739F9C0460E
:044D1C008DA4021050
:104D2000F7B500250E001D600421040001921F004C
:104D3000FEF7FCFFA84200D0255608212000FEF710
:104D4000F5FF0123EDB20093002801D02358009312
:104D50007D2D06D92A001B490198FEF7A1FF0120ED
:104D6000FEBD202D13D03368009A1B682900300047
:104D700098470300386000208342F1D1124AAD0009
:104D8000009B525911490198FEF78AFFE7E720007E
:104D90000621FEF7CBFF2418002803D02368E4186F
:104DA000002C04D10A490198FEF77AFFD7E733684F
:104DB000211D5B68009A3000984738604342584193
:104DC000C0B2CDE744A7021048A5021098A7021070
:044DD000CDA7021059
:104DD400030030B52D331B78002B0DD00378002150
:104DE400092B00D101694468230085691A1B954287
:0C4DF40002D919700133F8E7002030BD2F
:104E0000F8B515001C000022002306000F00FBF778
:104E1000DDFC002803D000232B602360F8BD2200B6
:104E2000300039001CF022FB0022104BFDF768FD1A
:104E30001CF04EFBFBF7E8FD002905DC80231B0678
:104E4000002903D1984201D91EF04AF9984206D1AF
:104E5000002904D180202368C00501332360236822
:104E60001F3301DA002020602860D7E70000E0410E
:104E7000F8B515001C000022094B06000F00FBF7D7
:104E8000BFFC002801D11EF02BF923002A003000BE
:104E90003900FFF7B5FF2368002BF4DBF8BDC046EF
:044EA0000000F03FDF
:104EA400F7B517001E0000220D4B04000D00FBF7A0
:104EB40091FC002801D11EF011F9002200232000EA
:104EC4002900FBF79BFC0028F5D001AB3A00200039
:104ED4002900FFF793FF019B002BECDC3360F7BD47
:044EE4000000F03F9B
:104EE800F7B5009201931F2304000120089A0D00D2
:104EF8009B1A9840FEF70CFB009A019B06000F00D6
:104F080020002900FDF7F8FC02000B0030003900F2
:104F1800FDF7F2FC084A094B04000D00FBF76CFC96
:104F2800002801D0044C054D29000A9B099A20004D
:104F3800FFF79AFFF7BDC0460000C0FFFFFFDF4143
:104F4800F7B504000120A04001380D000192FEF7DA
:104F5800DFFA019B06001A1B0F0001200021FBF756
:104F680015FCFBF787FD0B00020039003000FDF748
:104F7800C3FC2A0006000F0001200021FBF706FCF5
:104F8800FBF778FD02000B0030003900FDF7AAF8A6
:0A4F98001CF0CCF9FEF786FAFEBD0E
:104FA20010B50400081C2168FBF7F5FFFEF71FFB94
:0E4FB2001CF08DFAFEF779FA6368C01810BD86
:104FC00073B505000800D168C0681E00FCF7BCF985
:104FD0000021041CFBF758FC002809D10E4B2800C7
:104FE00000936C698E230D4A0D49A047012076BDC0
:104FF000201CFEF7FDFA0400F0680D00FEF7F8FA39
:105000000B00020029002000FDF770F8069B1860D5
:1050100059600020EBE7C04689A8021004A80210DE
:0450200072A8021060
:10502400F0B5040089B0C86806921D000591FEF72A
:10503400DDFA069B0600D8680F00FEF7D7FA0200D7
:105044000B0030003900FDF759FC06000F00002D5D
:105054002ED0E868FEF7CAFA0290039102000B0012
:1050640030003900FDF7BCFE029A039B4D00079007
:10507400390030006D08FBF7C1FB002801D0029E07
:10508400039F104A104B30003900FDF737FC079A94
:105094002B00FBF7BDFB00280AD10C4B200000932A
:1050A400656981230A4A0B49A847012009B0F0BD6C
:1050B4000F9B069A009305990E9B2000FFF77EFF35
:1050C400F4E7C0468DEDB5A0F7C6B03EA2A8021025
:0850D40004A8021072A80210EA
:1050DC00F0B51F00137885B00A9E032B0DD0092B59
:1050EC001CD0072B1ED0214B214A00934469C123AD
:1050FC002049A047012005B0F0BDFF25002413690D
:10510C00D2680393029201290FD1002102A8FFF764
:10511C0042FF844200DA04003C6017E080247F25C3
:10512C006442ECE7144D154CE9E7032911D1002139
:10513C0002A8FFF730FF844200DA040010493C60FB
:10514C0002A8FFF728FF854200DD0500356000202E
:10515C00D1E70229E0D10B4902A8FFF71CFF8442DA
:10516C0000DA0400FE213C608905E9E701A9021080
:10517C0004A8021072A80210FF7F00000080FFFF3D
:08518C000000C040000080BFDC
:10519400F0B591B00B930B00049130331F780400E9
:1051A4001500012F0DD0744B01260193734B039608
:1051B4000093312302974569714A72492000A84738
:1051C4001CE0130030331E78012E0CD06A4B039779
:1051D40001936D4B0296009345693323684A6949EC
:1051E400A84701260AE0536B002B0AD1674B0093B2
:1051F4003D234569624A66492000A847300011B042
:10520400F0BD1A680692002A04D1624B00934569E6
:105214003E23EFE7069A12680792012A37DD049AC3
:105224001278092A09D0092303935B4B0292019354
:105234005A4B009345694223BEE72978092908D0CF
:10524400554B03920193564B0291009345694323B6
:10525400B2E71E9A07998A4208D0524B03920193EF
:10526400514B0291009345694423A5E79B68AA68C2
:105274009B00D3185B681E9A9A4208D003934B4B49
:1052840002920193474B00934569472394E7049B9B
:10529400DB680893169BDB680993069B04330A9327
:1052A40000230593059A1E9B93422FDD079B012B38
:1052B40029DD93000A9AD058FEF798F90600089859
:1052C4000F00FEF793F902000B0030003900FDF7E0
:1052D40015FB060009980F00FEF788F902000B0081
:1052E40030003900FCF700FF0EAB0DAAFFF786FD76
:1052F400059B1C9A0D999B00D1501D9A0E99D15073
:10530400059B0133CDE7069B5868D5E7049B1B78C2
:10531400032B1AD1002200230E920F930EAB01939C
:10532400169B2A00009304990B9B2000FFF778FE3C
:10533400002800D055E70E980F990DAB189AFFF787
:105344005DFD0D9B199A5B421360049B1B78092B2E
:1053540003D00026032B00D050E7179B169A197828
:105364001B9B200000931A9BFFF7B6FE0600701EDD
:105374008641F6B242E7C04621A902103BA90210B9
:1053840004A8021007A9021054A902106EA9021061
:1053940072A8021082A902109DA90210A9A90210E4
:1053A400B5A90210C2A90210CFA90210F0A90210D7
:1053B40010B589688068FEF753FC431E9841C0B25B
:0253C40010BD1A
:1053C80070B5094D06002B78084C002B06D19621A4
:1053D8002000890112F02CFC01232B7031002000E1
:1053E80013F0C2FF70BDC0463B6C0120882F01201E
:0453F80000207047DA
:0453FC0000207047D6
:10540000036810B50400052B04DD4068002801D0B6
:0854100019F0B5FE200010BDEB
:1054180010B5002901DA1DF05FFE03688B42FADD42
:105428008900052B02DD4368585810BD41184868AB
:02543800FBE790
:10543A00F7B50B68076805000E0000249F4201D0EB
:10544A001DF049FEBC420DDA21002800FFF7DFFFFC
:10545A00210001903000FFF7DAFF019B8342EFD170
:10546A000134EFE72A1D052F00DD6A6800230120B9
:10547A009F4204DD9900515801334843F8E7FEBDC5
:10548C0070B50400002902D10160200070BD8D6848
:10549C002B6803609E00052B08DD094A30009342FF
:1054AC0001DD0120404219F037FE6060200008C881
:1054BC00052B00DD6068291D32001FF055F9E4E76B
:0454CC00FEFFFF1FC1
:1054D0000A68F0B5556883684A68AD015D1954687B
:1054E00006002878A4018FB01C19032842D009288F
:1054F00025D0012862D1290002A8FFF7C7FF6B68F9
:10550000210008A800932700FFF7C0FF002C00D05F
:10551000676808A902A8FFF790FF00240190019B8B
:10552000A34242DD009BA6009D590021281CFBF7E9
:105530008DF9002800D00025BD510134EFE7290086
:1055400002A82E69FFF7A2FF210008A86F68FFF7E5
:105550009DFF251E00D0656808A902A8FFF76DFF12
:105560000023984221DDFA56B24200DA3200EA54B2
:105570000133F6E7290002A82E69FFF787FF210013
:1055800008A86F68FFF782FF251E00D0656808A98C
:1055900002A8FFF752FF0023984206DDFA5CB242F0
:1055A00000DA3200EA540133F6E708A8FFF728FFD3
:1055B00002A8FFF725FF00200FB0F0BD7469FEF7C9
:1055C00063FB034902003000A0470120F4E7C04616
:0455D0002DAA0210EE
:1055D4000A68F0B5556883684A68AD015D19546876
:1055E40006002878A4018FB01C1903285BD0092871
:1055F4002ED0012800D08AE0290002A8FFF744FF3A
:105604006B68210008A800932600FFF73DFF002CDB
:1056140000D0666808A902A8FFF70DFF00250190D5
:10562400019BAB426ADD009BAF00DC593C49201C66
:10563400FBF71EF9002807D10021201CFBF704F911
:10564400002802D0002400E0354CF4510135E7E78E
:105654002A69E968324811F00FFF10262900070073
:1056640002A8AE57FFF710FF6B68210008A800934B
:105674002500FFF709FF002C00D0656808A902A8DF
:10568400FFF7D9FE0023341C984237DD009AD15627
:105694003A008F4204DB221C8E4200DA0A1C52B20A
:1056A400EA540133F0E72A69E9681D4811F0CCFE99
:1056B4002B692900070002A8DEB2FFF7E5FE6B683C
:1056C400210008A800932500FFF7DEFE002C00D07F
:1056D400656808A902A8FFF7AEFE0023341C9842AF
:1056E4000CDD009AD15C3A008F4204D3221C8E4216
:1056F40000D20A1CD2B2EA540133F0E708A8FFF73B
:105704007DFE02A8FFF77AFE00200FB0F0BD746999
:10571400FEF7B8FA034902003000A0470120F4E77D
:085724000000C0402DAA021094
:10572C000248034B8360034BC3607047C03A0120AF
:08573C00F9530010D1540010D4
:105744000248034B8360034BC3607047A03B0120B6
:08575400FD530010D5550010B3
:04575C000020704772
:02576000704790
:04576200002070476C
:1057660010B5002901DA1DF0B8FC03688B42FADD9A
:105776008900052B02DD43685A5010BD41184A6066
:02578600FBE73F
:10578800036870B505000C00052B04DD406800288F
:1057980001D019F0F0FC2C60052C08DD044BA000AA
:1057A8009C4201DD0120404219F0B8FC686070BDE0
:0457B800FEFFFF1FD2
:1057BC00020002CA10B5052900DD42680023012051
:1057CC008B4204DA9C00145901336043F8E710BD96
:1057DC00F7B5002505600193136806000C0017004F
:1057EC008B4201DD1DF076FCFFF7C8FF3B68E41A25
:1057FC00A54206DA2900019A3000FFF7AEFF013509
:10580C00F6E7300008C8052B00DD7068390004C9C4
:10581C00A4000019052A00DD796892001EF0A4FF8F
:04582C003000FEBD8D
:10583000F8B50468069E042C01D01DF051FC002927
:10584000FBDB44688C42F8DD002AF6DB8768974270
:10585000F3DD002BF1DBC5689D42EEDD002EECDBB5
:105860000469B442E9DD794389186943C818604383
:045870008019F8BDE6
:1058740070B50D001600FFF79FFF04002800FFF726
:105884009BFF05003000FFF797FFAC4201D01DF0ED
:0A58940025FC8442FBD1200070BD0A
:1058A00070B514000025884205D180231B06C51859
:1058B0006B425D41EDB2C617CB170A003100FBF712
:1058C0005BF8CE43F61776001C4B7608F618002DD1
:1058D00016D13200F317801859412B00CE177600ED
:1058E000720812184B415D00D20F15436642002C1E
:1058F00008DDB321124B134A490013481BF0B0FADC
:10590000124DF3E71F3404DA6821114B0D4AFF31C1
:10591000F3E7320001200021FAF73CFF2A000138AA
:10592000EB0F02404010181801231900824200DCDE
:105930000023354158420840401970BD010000C0A5
:105940008CAA02101CAB02109AAA0210FFFFFF7F64
:045950000DAB021089
:1059540070B5049C002902DB05688D4201DC1DF052
:10596400BDFB002AFBDB45689542F8DD002BF6DB26
:1059740085689D42F3DD002CF1DBC568A542EEDDB0
:105984000569694345696A4389188269C069534353
:085994006043CB18181870BD28
:10599C00F7B5040001920800E26A216B8A4201DD2E
:1059AC001DF098FB099A1900FFF75EFF62680090E2
:1059BC001300FF33F4DBA368FF2AF1DCFF22FF3373
:1059CC0052009342ECD80025009BAB4227DD089A8D
:1059DC00A369565DA268E169B618019A9E40505DB4
:1059EC00626880189840226AFFF754FFA26A070089
:1059FC00616A3000FFF74EFF626938182169FFF7C2
:105A0C0049FFE268E36A8018984200DA1800236BB9
:105A1C00984200DD18000A9B58550135D4E7F7BDB4
:105A2C00F7B5040001920800E26A216B8A4201DD9D
:105A3C001DF050FB099A1900FFF716FF62680090E1
:105A4C0013007F33F4DBA3687F2AF1DC7F33FE2B5A
